:100000001AC034C033C032C031C030C02FC02EC07F
:100010002DC02CC02BC02AC029C028C027C026C094
:1000200025C024C023C032C133C134C135C136C15B
:1000300037C138C139C111241FBECFE5D4E0DEBFBE
:10004000CDBF10E0A0E6B0E0E2ECF2E002C0059027
:100050000D92A038B107D9F720E0A0E8B0E001C0C8
:100060001D92A03DB207E1F702D029C1C9CF20D12E
:10007000C0E061E08C2F6AD060E08C2F73D060E02C
:100080008C2F7CD06FE08C2F67D067E08C2F70D0E6
:10009000CF5FCA3071F700E610E0C0E0F8014081A0
:1000A0000C5F1F4F6C2F80E0E5D087EA91E6019747
:1000B000F1F700C00000CF5FC83081F7ECCF47E018
:1000C00050E061E070E090E093989B01042E02C044
:1000D000220F331F0A94E2F728233923042E02C08B
:1000E000359527950A94E2F7222311F0929A01C0E0
:1000F0009298939A4150510938F708950F931F939E
:10010000CF93DF938A30E8F4142F062FD82F9498DA
:10011000893040F4C82F80E0D2DF80E0D0DFCF5FAD
:10012000C930C9F7802FCBDF812FC9DFDD2341F034
:10013000C0E080E0C4DF80E0C2DFCF5FDC13F9CF36
:10014000949ADF91CF911F910F910895623018F426
:10015000462F6CE0D3DF0895603118F4462F6AE033
:10016000CDDF0895623018F4462F6FE0C7DF0895A1
:10017000683018F4462F6BE0C1DF0895462F69E020
:10018000BDDF0895462FE82FF0E0EE0FFF1FEE0FC2
:10019000FF1FEE0FFF1FE058FF4F608361E0AEDFEF
:1001A0000895462FE82FF0E0EE0FFF1FEE0FFF1F20
:1001B000EE0FFF1FE058FF4F618362E09FDF08955D
:1001C000462FE82FF0E0EE0FFF1FEE0FFF1FEE0FA0
:1001D000FF1FE058FF4F628363E090DF0895462FD2
:1001E000E82FF0E0EE0FFF1FEE0FFF1FEE0FFF1FD7
:1001F000E058FF4F638364E081DF0895462FE82FC6
:10020000F0E0EE0FFF1FEE0FFF1FEE0FFF1FE05895
:10021000FF4F648365E072DF0895462FE82FF0E01A
:10022000EE0FFF1FEE0FFF1FEE0FFF1FE058FF4FF7
:10023000658366E063DF0895462FE82FF0E0EE0F58
:10024000FF1FEE0FFF1FEE0FFF1FE058FF4F6683EB
:1002500067E054DF0895462FE82FF0E0EE0FFF1F10
:10026000EE0FFF1FEE0FFF1FE058FF4F678368E0A0
:1002700045DF08950F931F93062F10E008301105F6
:10028000A0F4642FF801ED5EFF4F09947BDF0DC0F1
:1002900088DF0BC095DF09C0A2DF07C0AFDF05C054
:1002A000BCDF03C0C9DF01C0D6DF1F910F910895E5
:1002B0008A9A8B9A8C9A9298939894980895F89425
:0202C000FFCF6E
:1002C200000000001C0000002200000040000000AE
:1002D2004000000047000000220000001C00000057
:00000001FF
